{
  "_format": "hh-sol-artifact-1",
  "contractName": "UpdateContract",
  "sourceName": "contracts/nuvoUp.sol",
  "abi": [
    {
      "inputs": [
        {
          "internalType": "address",
          "name": "_newLogicContract",
          "type": "address"
        }
      ],
      "stateMutability": "nonpayable",
      "type": "constructor"
    },
    {
      "inputs": [
        {
          "internalType": "address",
          "name": "account",
          "type": "address"
        }
      ],
      "name": "balanceOf",
      "outputs": [
        {
          "internalType": "uint256",
          "name": "",
          "type": "uint256"
        }
      ],
      "stateMutability": "view",
      "type": "function"
    },
    {
      "inputs": [],
      "name": "contractData",
      "outputs": [
        {
          "internalType": "bytes",
          "name": "",
          "type": "bytes"
        }
      ],
      "stateMutability": "view",
      "type": "function"
    },
    {
      "inputs": [],
      "name": "deposit",
      "outputs": [],
      "stateMutability": "payable",
      "type": "function"
    },
    {
      "inputs": [],
      "name": "getRecentContractData",
      "outputs": [
        {
          "internalType": "bytes",
          "name": "",
          "type": "bytes"
        }
      ],
      "stateMutability": "view",
      "type": "function"
    },
    {
      "inputs": [],
      "name": "migrateToNewLogic",
      "outputs": [],
      "stateMutability": "payable",
      "type": "function"
    },
    {
      "inputs": [],
      "name": "newLogicContract",
      "outputs": [
        {
          "internalType": "address",
          "name": "",
          "type": "address"
        }
      ],
      "stateMutability": "view",
      "type": "function"
    },
    {
      "inputs": [],
      "name": "owner",
      "outputs": [
        {
          "internalType": "address",
          "name": "",
          "type": "address"
        }
      ],
      "stateMutability": "view",
      "type": "function"
    },
    {
      "inputs": [
        {
          "internalType": "address",
          "name": "_newLogicContract",
          "type": "address"
        }
      ],
      "name": "setNewLogicContract",
      "outputs": [],
      "stateMutability": "nonpayable",
      "type": "function"
    },
    {
      "inputs": [
        {
          "internalType": "uint256",
          "name": "",
          "type": "uint256"
        }
      ],
      "name": "users",
      "outputs": [
        {
          "internalType": "address",
          "name": "",
          "type": "address"
        }
      ],
      "stateMutability": "view",
      "type": "function"
    }
  ],
  "bytecode": "0x608060405234801561001057600080fd5b5060405161098838038061098883398101604081905261002f91610062565b60008054336001600160a01b031991821617909155600180549091166001600160a01b0392909216919091179055610092565b60006020828403121561007457600080fd5b81516001600160a01b038116811461008b57600080fd5b9392505050565b6108e7806100a16000396000f3fe6080604052600436106100865760003560e01c806370a082311161005957806370a082311461011f5780638da5cb5b1461016357806393e88a4314610183578063b27ea85b146101a5578063d0e30db0146101ad57600080fd5b80630338a79f1461008b578063365b98b2146100c85780633cca2420146100e857806353342e9a1461010a575b600080fd5b34801561009757600080fd5b506001546100ab906001600160a01b031681565b6040516001600160a01b0390911681526020015b60405180910390f35b3480156100d457600080fd5b506100ab6100e336600461061b565b6101b5565b3480156100f457600080fd5b506100fd6101df565b6040516100bf9190610634565b34801561011657600080fd5b506100fd61026d565b34801561012b57600080fd5b5061015561013a366004610682565b6001600160a01b031660009081526002602052604090205490565b6040519081526020016100bf565b34801561016f57600080fd5b506000546100ab906001600160a01b031681565b34801561018f57600080fd5b506101a361019e366004610682565b6102ff565b005b6101a3610354565b6101a361059c565b600381815481106101c557600080fd5b6000918252602090912001546001600160a01b0316905081565b600480546101ec906106b2565b80601f0160208091040260200160405190810160405280929190818152602001828054610218906106b2565b80156102655780601f1061023a57610100808354040283529160200191610265565b820191906000526020600020905b81548152906001019060200180831161024857829003601f168201915b505050505081565b60606004805461027c906106b2565b80601f01602080910402602001604051908101604052809291908181526020018280546102a8906106b2565b80156102f55780601f106102ca576101008083540402835291602001916102f5565b820191906000526020600020905b8154815290600101906020018083116102d857829003601f168201915b5050505050905090565b6000546001600160a01b031633146103325760405162461bcd60e51b8152600401610329906106ec565b60405180910390fd5b600180546001600160a01b0319166001600160a01b0392909216919091179055565b6000546001600160a01b0316331461037e5760405162461bcd60e51b8152600401610329906106ec565b6001546001600160a01b03166103e15760405162461bcd60e51b815260206004820152602260248201527f4e6577206c6f67696320636f6e74726163742061646472657373206e6f742073604482015261195d60f21b6064820152608401610329565b60005b600354811015610574576000600382815481106104035761040361072e565b60009182526020808320909101546001600160a01b03168083526002909152604090912054909150801561055f5760015460405160009182916001600160a01b039091169084908381818185875af1925050503d8060008114610482576040519150601f19603f3d011682016040523d82523d6000602084013e610487565b606091505b5091509150816104d05760405162461bcd60e51b81526020600482015260146024820152732330b4b632b2103a379039b2b7321022ba3432b960611b6044820152606401610329565b600154604051636a83ed0360e11b81526001600160a01b038681166004830152602482018690529091169063d507da0690604401600060405180830381600087803b15801561051e57600080fd5b505af1158015610532573d6000803e3d6000fd5b5050506001600160a01b03851660009081526002602052604081205550600461055b82826107a9565b5050505b5050808061056c9061087f565b9150506103e4565b5060018054600080546001600160a01b03199081166001600160a01b03841617909155169055565b3360009081526002602052604081205490036105f557600380546001810182556000919091527fc2575a0e9e593c00f959f8c92f12db2869c3395a3b0502d05e2516446f71f85b0180546001600160a01b031916331790555b3360009081526002602052604081208054349290610614908490610898565b9091555050565b60006020828403121561062d57600080fd5b5035919050565b600060208083528351808285015260005b8181101561066157858101830151858201604001528201610645565b506000604082860101526040601f19601f8301168501019250505092915050565b60006020828403121561069457600080fd5b81356001600160a01b03811681146106ab57600080fd5b9392505050565b600181811c908216806106c657607f821691505b6020821081036106e657634e487b7160e01b600052602260045260246000fd5b50919050565b60208082526022908201527f4f6e6c79206f776e65722063616e2063616c6c20746869732066756e6374696f604082015261371760f11b606082015260800190565b634e487b7160e01b600052603260045260246000fd5b634e487b7160e01b600052604160045260246000fd5b601f8211156107a457600081815260208120601f850160051c810160208610156107815750805b601f850160051c820191505b818110156107a05782815560010161078d565b5050505b505050565b815167ffffffffffffffff8111156107c3576107c3610744565b6107d7816107d184546106b2565b8461075a565b602080601f83116001811461080c57600084156107f45750858301515b600019600386901b1c1916600185901b1785556107a0565b600085815260208120601f198616915b8281101561083b5788860151825594840194600190910190840161081c565b50858210156108595787850151600019600388901b60f8161c191681555b5050505050600190811b01905550565b634e487b7160e01b600052601160045260246000fd5b60006001820161089157610891610869565b5060010190565b808201808211156108ab576108ab610869565b9291505056fea26469706673582212206bf757b2eb8c8dd4f68a5a1f5dac7f251084fff5aa332b2001b341e304344e6a64736f6c63430008130033",
  "linkReferences": {},
  "deployedLinkReferences": {}
}