{
  "_format": "hh-sol-artifact-1",
  "contractName": "StakingContract",
  "sourceName": "contracts/nuvoLogic.sol",
  "abi": [
    {
      "inputs": [
        {
          "internalType": "address",
          "name": "_treasury",
          "type": "address"
        }
      ],
      "stateMutability": "nonpayable",
      "type": "constructor"
    },
    {
      "anonymous": false,
      "inputs": [
        {
          "indexed": true,
          "internalType": "address",
          "name": "user",
          "type": "address"
        },
        {
          "indexed": false,
          "internalType": "uint256",
          "name": "amount",
          "type": "uint256"
        },
        {
          "indexed": false,
          "internalType": "uint256",
          "name": "commission",
          "type": "uint256"
        }
      ],
      "name": "DepositMade",
      "type": "event"
    },
    {
      "anonymous": false,
      "inputs": [
        {
          "indexed": true,
          "internalType": "address",
          "name": "user",
          "type": "address"
        },
        {
          "indexed": false,
          "internalType": "uint256",
          "name": "amount",
          "type": "uint256"
        },
        {
          "indexed": false,
          "internalType": "uint256",
          "name": "commission",
          "type": "uint256"
        }
      ],
      "name": "DepositWithdrawn",
      "type": "event"
    },
    {
      "anonymous": false,
      "inputs": [
        {
          "indexed": true,
          "internalType": "address",
          "name": "previousOwner",
          "type": "address"
        },
        {
          "indexed": true,
          "internalType": "address",
          "name": "newOwner",
          "type": "address"
        }
      ],
      "name": "OwnershipTransferred",
      "type": "event"
    },
    {
      "anonymous": false,
      "inputs": [
        {
          "indexed": false,
          "internalType": "address",
          "name": "account",
          "type": "address"
        }
      ],
      "name": "Paused",
      "type": "event"
    },
    {
      "anonymous": false,
      "inputs": [
        {
          "indexed": true,
          "internalType": "address",
          "name": "user",
          "type": "address"
        },
        {
          "indexed": false,
          "internalType": "uint256",
          "name": "amount",
          "type": "uint256"
        }
      ],
      "name": "RewardClaimed",
      "type": "event"
    },
    {
      "anonymous": false,
      "inputs": [
        {
          "indexed": false,
          "internalType": "address",
          "name": "account",
          "type": "address"
        }
      ],
      "name": "Unpaused",
      "type": "event"
    },
    {
      "inputs": [],
      "name": "COMMISSION_PERCENTAGE",
      "outputs": [
        {
          "internalType": "uint256",
          "name": "",
          "type": "uint256"
        }
      ],
      "stateMutability": "view",
      "type": "function"
    },
    {
      "inputs": [],
      "name": "DAILY_ROI_PERCENTAGE",
      "outputs": [
        {
          "internalType": "uint256",
          "name": "",
          "type": "uint256"
        }
      ],
      "stateMutability": "view",
      "type": "function"
    },
    {
      "inputs": [],
      "name": "DURATION",
      "outputs": [
        {
          "internalType": "uint256",
          "name": "",
          "type": "uint256"
        }
      ],
      "stateMutability": "view",
      "type": "function"
    },
    {
      "inputs": [],
      "name": "MAX_DEPOSIT_PERCENTAGE",
      "outputs": [
        {
          "internalType": "uint256",
          "name": "",
          "type": "uint256"
        }
      ],
      "stateMutability": "view",
      "type": "function"
    },
    {
      "inputs": [],
      "name": "MAX_ROI_PERCENTAGE",
      "outputs": [
        {
          "internalType": "uint256",
          "name": "",
          "type": "uint256"
        }
      ],
      "stateMutability": "view",
      "type": "function"
    },
    {
      "inputs": [],
      "name": "WEEKLY_ROI_PERCENTAGE",
      "outputs": [
        {
          "internalType": "uint256",
          "name": "",
          "type": "uint256"
        }
      ],
      "stateMutability": "view",
      "type": "function"
    },
    {
      "inputs": [],
      "name": "addToPool",
      "outputs": [],
      "stateMutability": "payable",
      "type": "function"
    },
    {
      "inputs": [
        {
          "internalType": "address",
          "name": "user",
          "type": "address"
        }
      ],
      "name": "calculateRewards",
      "outputs": [
        {
          "internalType": "uint256",
          "name": "",
          "type": "uint256"
        }
      ],
      "stateMutability": "view",
      "type": "function"
    },
    {
      "inputs": [],
      "name": "claimRewards",
      "outputs": [],
      "stateMutability": "nonpayable",
      "type": "function"
    },
    {
      "inputs": [],
      "name": "deposit",
      "outputs": [],
      "stateMutability": "payable",
      "type": "function"
    },
    {
      "inputs": [
        {
          "internalType": "address",
          "name": "user",
          "type": "address"
        }
      ],
      "name": "getTotalDeposited",
      "outputs": [
        {
          "internalType": "uint256",
          "name": "",
          "type": "uint256"
        }
      ],
      "stateMutability": "view",
      "type": "function"
    },
    {
      "inputs": [
        {
          "internalType": "address",
          "name": "",
          "type": "address"
        }
      ],
      "name": "lastWithdrawalTime",
      "outputs": [
        {
          "internalType": "uint256",
          "name": "",
          "type": "uint256"
        }
      ],
      "stateMutability": "view",
      "type": "function"
    },
    {
      "inputs": [],
      "name": "owner",
      "outputs": [
        {
          "internalType": "address",
          "name": "",
          "type": "address"
        }
      ],
      "stateMutability": "view",
      "type": "function"
    },
    {
      "inputs": [],
      "name": "pause",
      "outputs": [],
      "stateMutability": "nonpayable",
      "type": "function"
    },
    {
      "inputs": [],
      "name": "paused",
      "outputs": [
        {
          "internalType": "bool",
          "name": "",
          "type": "bool"
        }
      ],
      "stateMutability": "view",
      "type": "function"
    },
    {
      "inputs": [],
      "name": "renounceOwnership",
      "outputs": [],
      "stateMutability": "nonpayable",
      "type": "function"
    },
    {
      "inputs": [
        {
          "internalType": "address",
          "name": "_newTreasury",
          "type": "address"
        }
      ],
      "name": "setTreasury",
      "outputs": [],
      "stateMutability": "nonpayable",
      "type": "function"
    },
    {
      "inputs": [
        {
          "internalType": "address",
          "name": "",
          "type": "address"
        }
      ],
      "name": "totalClaimedRewards",
      "outputs": [
        {
          "internalType": "uint256",
          "name": "",
          "type": "uint256"
        }
      ],
      "stateMutability": "view",
      "type": "function"
    },
    {
      "inputs": [
        {
          "internalType": "address",
          "name": "",
          "type": "address"
        }
      ],
      "name": "totalDeposited",
      "outputs": [
        {
          "internalType": "uint256",
          "name": "",
          "type": "uint256"
        }
      ],
      "stateMutability": "view",
      "type": "function"
    },
    {
      "inputs": [],
      "name": "totalPoolBalance",
      "outputs": [
        {
          "internalType": "uint256",
          "name": "",
          "type": "uint256"
        }
      ],
      "stateMutability": "view",
      "type": "function"
    },
    {
      "inputs": [
        {
          "internalType": "address",
          "name": "newOwner",
          "type": "address"
        }
      ],
      "name": "transferOwnership",
      "outputs": [],
      "stateMutability": "nonpayable",
      "type": "function"
    },
    {
      "inputs": [],
      "name": "treasury",
      "outputs": [
        {
          "internalType": "address",
          "name": "",
          "type": "address"
        }
      ],
      "stateMutability": "view",
      "type": "function"
    },
    {
      "inputs": [],
      "name": "unpause",
      "outputs": [],
      "stateMutability": "nonpayable",
      "type": "function"
    },
    {
      "inputs": [
        {
          "internalType": "address",
          "name": "",
          "type": "address"
        },
        {
          "internalType": "uint256",
          "name": "",
          "type": "uint256"
        }
      ],
      "name": "userDeposits",
      "outputs": [
        {
          "internalType": "uint256",
          "name": "amount",
          "type": "uint256"
        },
        {
          "internalType": "uint256",
          "name": "limitAmount",
          "type": "uint256"
        },
        {
          "internalType": "uint256",
          "name": "lastClaimTime",
          "type": "uint256"
        },
        {
          "internalType": "bool",
          "name": "active",
          "type": "bool"
        }
      ],
      "stateMutability": "view",
      "type": "function"
    },
    {
      "inputs": [
        {
          "internalType": "uint256",
          "name": "_amount",
          "type": "uint256"
        }
      ],
      "name": "withdraw",
      "outputs": [],
      "stateMutability": "nonpayable",
      "type": "function"
    },
    {
      "stateMutability": "payable",
      "type": "receive"
    }
  ],
  "bytecode": "0x608060405234801561001057600080fd5b5060405161136938038061136983398101604081905261002f916100ba565b6100383361006a565b6000805460ff60a01b19169055600180546001600160a01b0319166001600160a01b03929092169190911790556100ea565b600080546001600160a01b038381166001600160a01b0319831681178455604051919092169283917f8be0079c531659141344cd1fd0a4f28419497f9722a3daafe3b4186f6b6457e09190a35050565b6000602082840312156100cc57600080fd5b81516001600160a01b03811681146100e357600080fd5b9392505050565b611270806100f96000396000f3fe60806040526004361061016a5760003560e01c806361d027b3116100d1578063bd761f731161008a578063dc99ef0d11610064578063dc99ef0d1461041d578063e798d3c914610433578063f0f4426014610449578063f2fde38b1461046957600080fd5b8063bd761f73146103f7578063c07401f01461040d578063d0e30db01461041557600080fd5b806361d027b31461032a57806364ab867514610362578063715018a6146103825780638456cb59146103975780638da5cb5b146103ac578063a110b93f146103ca57600080fd5b80633f4ba83a116101235780633f4ba83a146102655780634232c0791461027a5780634de5120e146102905780635026d63e146102bd57806353055481146102d35780635c975abb1461030057600080fd5b806308f43333146101765780630c9c31bd146101bd5780631be05289146102015780631bf1de9b146102185780632e1a7d4d1461022e578063372500ab1461025057600080fd5b3661017157005b600080fd5b34801561018257600080fd5b50610196610191366004611138565b610489565b60408051948552602085019390935291830152151560608201526080015b60405180910390f35b3480156101c957600080fd5b506101f36101d8366004611162565b6001600160a01b031660009081526007602052604090205490565b6040519081526020016101b4565b34801561020d57600080fd5b506101f362093a8081565b34801561022457600080fd5b506101f361019081565b34801561023a57600080fd5b5061024e61024936600461117d565b6104d2565b005b34801561025c57600080fd5b5061024e6107d7565b34801561027157600080fd5b5061024e610a48565b34801561028657600080fd5b506101f36102ca81565b34801561029c57600080fd5b506101f36102ab366004611162565b60066020526000908152604090205481565b3480156102c957600080fd5b506101f360025481565b3480156102df57600080fd5b506101f36102ee366004611162565b60046020526000908152604090205481565b34801561030c57600080fd5b50600054600160a01b900460ff1660405190151581526020016101b4565b34801561033657600080fd5b5060015461034a906001600160a01b031681565b6040516001600160a01b0390911681526020016101b4565b34801561036e57600080fd5b506101f361037d366004611162565b610a5a565b34801561038e57600080fd5b5061024e610c31565b3480156103a357600080fd5b5061024e610c43565b3480156103b857600080fd5b506000546001600160a01b031661034a565b3480156103d657600080fd5b506101f36103e5366004611162565b60056020526000908152604090205481565b34801561040357600080fd5b506101f3613c8c81565b61024e610c53565b61024e610c6d565b34801561042957600080fd5b506101f36101f481565b34801561043f57600080fd5b506101f361157c81565b34801561045557600080fd5b5061024e610464366004611162565b610e61565b34801561047557600080fd5b5061024e610484366004611162565b610e8b565b600360205281600052604060002081815481106104a557600080fd5b60009182526020909120600490910201805460018201546002830154600390930154919450925060ff1684565b6104da610f04565b336000908152600660205260409020546104f79062093a80610f51565b4210156105415760405162461bcd60e51b815260206004820152601360248201527210d85b9b9bdd081dda5d1a191c985dc81e595d606a1b60448201526064015b60405180910390fd5b336000908152600460205260409020548111156105a05760405162461bcd60e51b815260206004820152601e60248201527f496e73756666696369656e742066756e647320746f20776974686472617700006044820152606401610538565b33600090815260056020526040812054908282116105be57816105c0565b825b905060006105dc6127106105d684610190610f66565b90610f72565b905060006105ea8383610f7e565b336000908152600460205260409020549091506106079086610f7e565b3360009081526004602090815260408083209390935560059052205461062d9084610f7e565b3360009081526005602052604090205560025461064a9082610f7e565b6002556001546040516000916001600160a01b03169084908381818185875af1925050503d806000811461069a576040519150601f19603f3d011682016040523d82523d6000602084013e61069f565b606091505b50509050806106f05760405162461bcd60e51b815260206004820152601d60248201527f4661696c656420746f207472616e7366657220636f6d6d697373696f6e0000006044820152606401610538565b604051600090339084908381818185875af1925050503d8060008114610732576040519150601f19603f3d011682016040523d82523d6000602084013e610737565b606091505b50509050806107935760405162461bcd60e51b815260206004820152602260248201527f4661696c656420746f207472616e7366657220776974686472617720616d6f756044820152611b9d60f21b6064820152608401610538565b604080518481526020810186905233917f7719804546c0185709e60c90d164447ff251a5ba29af0216faa921350f6bebf7910160405180910390a250505050505050565b6107df610f04565b336000908152600660205260409020546107fd9062093a80906111ac565b421161085f5760405162461bcd60e51b815260206004820152602b60248201527f4e65656420746f2077616974206174206c656173742061207765656b20666f7260448201526a206e65787420636c61696d60a81b6064820152608401610538565b600061086a33610a5a565b9050600081116108b25760405162461bcd60e51b81526020600482015260136024820152724e6f207265776172647320746f20636c61696d60681b6044820152606401610538565b336000908152600560205260409020546108cc9082610f51565b336000908152600560209081526040808320939093556004905220546108f29082610f51565b3360009081526004602052604090205560025461090f9082610f7e565b60025560005b3360009081526003602052604090205481101561097657336000908152600360205260409020805442919083908110610950576109506111bf565b60009182526020909120600260049092020101558061096e816111d5565b915050610915565b50604051600090339083908381818185875af1925050503d80600081146109b9576040519150601f19603f3d011682016040523d82523d6000602084013e6109be565b606091505b5050905080610a0f5760405162461bcd60e51b815260206004820152601a60248201527f4661696c656420746f207472616e7366657220726577617264730000000000006044820152606401610538565b60405182815233907f106f923f993c2149d49b4255ff723acafa1f2d94393f561d3eda32ae348f72419060200160405180910390a25050565b610a50610f8a565b610a58610fe4565b565b6001600160a01b03811660009081526003602052604081208180610a8160076101f46111ee565b905060005b8354811015610c0357838181548110610aa157610aa16111bf565b600091825260209091206003600490920201015460ff1615610bf157600062015180858381548110610ad557610ad56111bf565b90600052602060002090600402016002015442610af29190611210565b610afc91906111ee565b90506000610b336127106105d686898781548110610b1c57610b1c6111bf565b600091825260209091206004909102015490610f66565b9050610b3f8183610f66565b9050858381548110610b5357610b536111bf565b60009182526020808320600492830201600101546001600160a01b038c168452919052604090912054610b87908390610f51565b1115610be2576001600160a01b0388166000908152600460205260409020548654610bdf9190889086908110610bbf57610bbf6111bf565b906000526020600020906004020160010154610f7e90919063ffffffff16565b90505b610bec8582610f51565b945050505b80610bfb816111d5565b915050610a86565b506001600160a01b038516600090815260056020526040902054610c28908390610f7e565b95945050505050565b610c39610f8a565b610a586000611039565b610c4b610f8a565b610a58611089565b610c5b610f8a565b600254610c689034610f51565b600255565b3360009081526007602052604081208054349290610c8c9084906111ac565b9091555060009050610ca66127106105d634610190610f66565b90506000610cb43483610f7e565b336000908152600360209081526040918290208251608081019093528383529293508101610cea6127106105d686613c8c610f66565b815242602080830191909152600160409283018190528454808201865560009586528286208551600492830290910190815585840151928101929092558484015160028301556060909401516003909101805460ff191691151591909117905533845291909152902054610d5e9082610f51565b33600090815260046020526040902055600254610d7b9082610f51565b6002556001546040516000916001600160a01b03169084908381818185875af1925050503d8060008114610dcb576040519150601f19603f3d011682016040523d82523d6000602084013e610dd0565b606091505b5050905080610e215760405162461bcd60e51b815260206004820152601d60248201527f4661696c656420746f207472616e7366657220636f6d6d697373696f6e0000006044820152606401610538565b604080518381526020810185905233917f0b05f0d1cd0819f155b8a61f60baf7767c1ee49d04aeaab701df236140eb93f9910160405180910390a2505050565b610e69610f8a565b600180546001600160a01b0319166001600160a01b0392909216919091179055565b610e93610f8a565b6001600160a01b038116610ef85760405162461bcd60e51b815260206004820152602660248201527f4f776e61626c653a206e6577206f776e657220697320746865207a65726f206160448201526564647265737360d01b6064820152608401610538565b610f0181611039565b50565b600054600160a01b900460ff1615610a585760405162461bcd60e51b815260206004820152601060248201526f14185d5cd8589b194e881c185d5cd95960821b6044820152606401610538565b6000610f5d82846111ac565b90505b92915050565b6000610f5d8284611223565b6000610f5d82846111ee565b6000610f5d8284611210565b6000546001600160a01b03163314610a585760405162461bcd60e51b815260206004820181905260248201527f4f776e61626c653a2063616c6c6572206973206e6f7420746865206f776e65726044820152606401610538565b610fec6110cc565b6000805460ff60a01b191690557f5db9ee0a495bf2e6ff9c91a7834c1ba4fdd244a5e8aa4e537bd38aeae4b073aa335b6040516001600160a01b03909116815260200160405180910390a1565b600080546001600160a01b038381166001600160a01b0319831681178455604051919092169283917f8be0079c531659141344cd1fd0a4f28419497f9722a3daafe3b4186f6b6457e09190a35050565b611091610f04565b6000805460ff60a01b1916600160a01b1790557f62e78cea01bee320cd4e420270b5ea74000d11b0c9f74754ebdbfc544b05a25861101c3390565b600054600160a01b900460ff16610a585760405162461bcd60e51b815260206004820152601460248201527314185d5cd8589b194e881b9bdd081c185d5cd95960621b6044820152606401610538565b80356001600160a01b038116811461113357600080fd5b919050565b6000806040838503121561114b57600080fd5b6111548361111c565b946020939093013593505050565b60006020828403121561117457600080fd5b610f5d8261111c565b60006020828403121561118f57600080fd5b5035919050565b634e487b7160e01b600052601160045260246000fd5b80820180821115610f6057610f60611196565b634e487b7160e01b600052603260045260246000fd5b6000600182016111e7576111e7611196565b5060010190565b60008261120b57634e487b7160e01b600052601260045260246000fd5b500490565b81810381811115610f6057610f60611196565b8082028115828204841417610f6057610f6061119656fea26469706673582212204260e2b97ae8b88d826b64c5bf9b81b9fccb2dbb3e92908063c200beade95e6a64736f6c63430008130033",
  "linkReferences": {},
  "deployedLinkReferences": {}
}